{
  "_format": "hh-sol-artifact-1",
  "contractName": "MultiTokenERC721",
  "sourceName": "contracts/ERC721.sol",
  "abi": [
    {
      "inputs": [],
      "stateMutability": "nonpayable",
      "type": "constructor"
    },
    {
      "anonymous": false,
      "inputs": [
        {
          "indexed": true,
          "internalType": "address",
          "name": "owner",
          "type": "address"
        },
        {
          "indexed": true,
          "internalType": "address",
          "name": "approved",
          "type": "address"
        },
        {
          "indexed": true,
          "internalType": "uint256",
          "name": "tokenId",
          "type": "uint256"
        }
      ],
      "name": "Approval",
      "type": "event"
    },
    {
      "anonymous": false,
      "inputs": [
        {
          "indexed": true,
          "internalType": "address",
          "name": "owner",
          "type": "address"
        },
        {
          "indexed": true,
          "internalType": "address",
          "name": "operator",
          "type": "address"
        },
        {
          "indexed": false,
          "internalType": "bool",
          "name": "approved",
          "type": "bool"
        }
      ],
      "name": "ApprovalForAll",
      "type": "event"
    },
    {
      "anonymous": false,
      "inputs": [
        {
          "indexed": false,
          "internalType": "uint256",
          "name": "_fromTokenId",
          "type": "uint256"
        },
        {
          "indexed": false,
          "internalType": "uint256",
          "name": "_toTokenId",
          "type": "uint256"
        }
      ],
      "name": "BatchMetadataUpdate",
      "type": "event"
    },
    {
      "anonymous": false,
      "inputs": [
        {
          "indexed": false,
          "internalType": "uint256",
          "name": "_tokenId",
          "type": "uint256"
        }
      ],
      "name": "MetadataUpdate",
      "type": "event"
    },
    {
      "anonymous": false,
      "inputs": [
        {
          "indexed": true,
          "internalType": "address",
          "name": "previousOwner",
          "type": "address"
        },
        {
          "indexed": true,
          "internalType": "address",
          "name": "newOwner",
          "type": "address"
        }
      ],
      "name": "OwnershipTransferred",
      "type": "event"
    },
    {
      "anonymous": false,
      "inputs": [
        {
          "indexed": true,
          "internalType": "address",
          "name": "from",
          "type": "address"
        },
        {
          "indexed": true,
          "internalType": "address",
          "name": "to",
          "type": "address"
        },
        {
          "indexed": true,
          "internalType": "uint256",
          "name": "tokenId",
          "type": "uint256"
        }
      ],
      "name": "Transfer",
      "type": "event"
    },
    {
      "inputs": [
        {
          "internalType": "uint256",
          "name": "",
          "type": "uint256"
        }
      ],
      "name": "Creator",
      "outputs": [
        {
          "internalType": "address",
          "name": "",
          "type": "address"
        }
      ],
      "stateMutability": "view",
      "type": "function"
    },
    {
      "inputs": [
        {
          "internalType": "uint256",
          "name": "",
          "type": "uint256"
        }
      ],
      "name": "NFTDetail",
      "outputs": [
        {
          "internalType": "string",
          "name": "nftName",
          "type": "string"
        },
        {
          "internalType": "string",
          "name": "description",
          "type": "string"
        },
        {
          "internalType": "uint256",
          "name": "price",
          "type": "uint256"
        },
        {
          "internalType": "string",
          "name": "nftURI",
          "type": "string"
        },
        {
          "internalType": "string",
          "name": "metaDataURI",
          "type": "string"
        },
        {
          "internalType": "bool",
          "name": "isSold",
          "type": "bool"
        }
      ],
      "stateMutability": "view",
      "type": "function"
    },
    {
      "inputs": [
        {
          "internalType": "address",
          "name": "to",
          "type": "address"
        },
        {
          "internalType": "uint256",
          "name": "tokenId",
          "type": "uint256"
        }
      ],
      "name": "approve",
      "outputs": [],
      "stateMutability": "nonpayable",
      "type": "function"
    },
    {
      "inputs": [
        {
          "internalType": "address",
          "name": "owner",
          "type": "address"
        }
      ],
      "name": "balanceOf",
      "outputs": [
        {
          "internalType": "uint256",
          "name": "",
          "type": "uint256"
        }
      ],
      "stateMutability": "view",
      "type": "function"
    },
    {
      "inputs": [
        {
          "internalType": "uint256",
          "name": "_tokenId",
          "type": "uint256"
        }
      ],
      "name": "buyNFT",
      "outputs": [],
      "stateMutability": "payable",
      "type": "function"
    },
    {
      "inputs": [
        {
          "internalType": "uint256",
          "name": "tokenId",
          "type": "uint256"
        }
      ],
      "name": "getApproved",
      "outputs": [
        {
          "internalType": "address",
          "name": "",
          "type": "address"
        }
      ],
      "stateMutability": "view",
      "type": "function"
    },
    {
      "inputs": [
        {
          "internalType": "uint256",
          "name": "_tokenId",
          "type": "uint256"
        }
      ],
      "name": "getDetails",
      "outputs": [
        {
          "components": [
            {
              "internalType": "string",
              "name": "nftName",
              "type": "string"
            },
            {
              "internalType": "string",
              "name": "description",
              "type": "string"
            },
            {
              "internalType": "uint256",
              "name": "price",
              "type": "uint256"
            },
            {
              "internalType": "string",
              "name": "nftURI",
              "type": "string"
            },
            {
              "internalType": "string",
              "name": "metaDataURI",
              "type": "string"
            },
            {
              "internalType": "bool",
              "name": "isSold",
              "type": "bool"
            }
          ],
          "internalType": "struct MultiTokenERC721.NFT",
          "name": "",
          "type": "tuple"
        }
      ],
      "stateMutability": "view",
      "type": "function"
    },
    {
      "inputs": [
        {
          "internalType": "address",
          "name": "owner",
          "type": "address"
        },
        {
          "internalType": "address",
          "name": "operator",
          "type": "address"
        }
      ],
      "name": "isApprovedForAll",
      "outputs": [
        {
          "internalType": "bool",
          "name": "",
          "type": "bool"
        }
      ],
      "stateMutability": "view",
      "type": "function"
    },
    {
      "inputs": [
        {
          "internalType": "string",
          "name": "nftName",
          "type": "string"
        },
        {
          "internalType": "uint256",
          "name": "price",
          "type": "uint256"
        },
        {
          "internalType": "string",
          "name": "description",
          "type": "string"
        },
        {
          "internalType": "string",
          "name": "nftURI",
          "type": "string"
        },
        {
          "internalType": "string",
          "name": "metaDataURI",
          "type": "string"
        }
      ],
      "name": "mint",
      "outputs": [],
      "stateMutability": "nonpayable",
      "type": "function"
    },
    {
      "inputs": [],
      "name": "name",
      "outputs": [
        {
          "internalType": "string",
          "name": "",
          "type": "string"
        }
      ],
      "stateMutability": "view",
      "type": "function"
    },
    {
      "inputs": [],
      "name": "owner",
      "outputs": [
        {
          "internalType": "address",
          "name": "",
          "type": "address"
        }
      ],
      "stateMutability": "view",
      "type": "function"
    },
    {
      "inputs": [
        {
          "internalType": "uint256",
          "name": "tokenId",
          "type": "uint256"
        }
      ],
      "name": "ownerOf",
      "outputs": [
        {
          "internalType": "address",
          "name": "",
          "type": "address"
        }
      ],
      "stateMutability": "view",
      "type": "function"
    },
    {
      "inputs": [],
      "name": "renounceOwnership",
      "outputs": [],
      "stateMutability": "nonpayable",
      "type": "function"
    },
    {
      "inputs": [
        {
          "internalType": "address",
          "name": "from",
          "type": "address"
        },
        {
          "internalType": "address",
          "name": "to",
          "type": "address"
        },
        {
          "internalType": "uint256",
          "name": "tokenId",
          "type": "uint256"
        }
      ],
      "name": "safeTransferFrom",
      "outputs": [],
      "stateMutability": "nonpayable",
      "type": "function"
    },
    {
      "inputs": [
        {
          "internalType": "address",
          "name": "from",
          "type": "address"
        },
        {
          "internalType": "address",
          "name": "to",
          "type": "address"
        },
        {
          "internalType": "uint256",
          "name": "tokenId",
          "type": "uint256"
        },
        {
          "internalType": "bytes",
          "name": "data",
          "type": "bytes"
        }
      ],
      "name": "safeTransferFrom",
      "outputs": [],
      "stateMutability": "nonpayable",
      "type": "function"
    },
    {
      "inputs": [
        {
          "internalType": "address",
          "name": "operator",
          "type": "address"
        },
        {
          "internalType": "bool",
          "name": "approved",
          "type": "bool"
        }
      ],
      "name": "setApprovalForAll",
      "outputs": [],
      "stateMutability": "nonpayable",
      "type": "function"
    },
    {
      "inputs": [
        {
          "internalType": "bytes4",
          "name": "interfaceId",
          "type": "bytes4"
        }
      ],
      "name": "supportsInterface",
      "outputs": [
        {
          "internalType": "bool",
          "name": "",
          "type": "bool"
        }
      ],
      "stateMutability": "view",
      "type": "function"
    },
    {
      "inputs": [],
      "name": "symbol",
      "outputs": [
        {
          "internalType": "string",
          "name": "",
          "type": "string"
        }
      ],
      "stateMutability": "view",
      "type": "function"
    },
    {
      "inputs": [],
      "name": "tokenId",
      "outputs": [
        {
          "internalType": "uint256",
          "name": "",
          "type": "uint256"
        }
      ],
      "stateMutability": "view",
      "type": "function"
    },
    {
      "inputs": [
        {
          "internalType": "uint256",
          "name": "_tokenId",
          "type": "uint256"
        }
      ],
      "name": "tokenURI",
      "outputs": [
        {
          "internalType": "string",
          "name": "",
          "type": "string"
        }
      ],
      "stateMutability": "view",
      "type": "function"
    },
    {
      "inputs": [
        {
          "internalType": "address",
          "name": "from",
          "type": "address"
        },
        {
          "internalType": "address",
          "name": "to",
          "type": "address"
        },
        {
          "internalType": "uint256",
          "name": "tokenId",
          "type": "uint256"
        }
      ],
      "name": "transferFrom",
      "outputs": [],
      "stateMutability": "nonpayable",
      "type": "function"
    },
    {
      "inputs": [
        {
          "internalType": "address",
          "name": "newOwner",
          "type": "address"
        }
      ],
      "name": "transferOwnership",
      "outputs": [],
      "stateMutability": "nonpayable",
      "type": "function"
    },
    {
      "inputs": [
        {
          "internalType": "uint256",
          "name": "_tokenId",
          "type": "uint256"
        },
        {
          "internalType": "string",
          "name": "newMetadataURI",
          "type": "string"
        }
      ],
      "name": "updateTokenMetadataURI",
      "outputs": [],
      "stateMutability": "nonpayable",
      "type": "function"
    }
  ],
  "bytecode": "0x608060405260016008553480156200001657600080fd5b5060405180602001604052806000815250604051806020016040528060008152508160009081620000489190620003cb565b5080600190816200005a9190620003cb565b5050506200007d620000716200008360201b60201c565b6200008b60201b60201c565b620004b2565b600033905090565b6000600760009054906101000a900473ffffffffffffffffffffffffffffffffffffffff16905081600760006101000a81548173ffffffffffffffffffffffffffffffffffffffff021916908373ffffffffffffffffffffffffffffffffffffffff1602179055508173ffffffffffffffffffffffffffffffffffffffff168173ffffffffffffffffffffffffffffffffffffffff167f8be0079c531659141344cd1fd0a4f28419497f9722a3daafe3b4186f6b6457e060405160405180910390a35050565b600081519050919050565b7f4e487b7100000000000000000000000000000000000000000000000000000000600052604160045260246000fd5b7f4e487b7100000000000000000000000000000000000000000000000000000000600052602260045260246000fd5b60006002820490506001821680620001d357607f821691505b602082108103620001e957620001e86200018b565b5b50919050565b60008190508160005260206000209050919050565b60006020601f8301049050919050565b600082821b905092915050565b600060088302620002537fffffffffffffffffffffffffffffffffffffffffffffffffffffffffffffffff8262000214565b6200025f868362000214565b95508019841693508086168417925050509392505050565b6000819050919050565b6000819050919050565b6000620002ac620002a6620002a08462000277565b62000281565b62000277565b9050919050565b6000819050919050565b620002c8836200028b565b620002e0620002d782620002b3565b84845462000221565b825550505050565b600090565b620002f7620002e8565b62000304818484620002bd565b505050565b5b818110156200032c5762000320600082620002ed565b6001810190506200030a565b5050565b601f8211156200037b576200034581620001ef565b620003508462000204565b8101602085101562000360578190505b620003786200036f8562000204565b83018262000309565b50505b505050565b600082821c905092915050565b6000620003a06000198460080262000380565b1980831691505092915050565b6000620003bb83836200038d565b9150826002028217905092915050565b620003d68262000151565b67ffffffffffffffff811115620003f257620003f16200015c565b5b620003fe8254620001ba565b6200040b82828562000330565b600060209050601f8311600181146200044357600084156200042e578287015190505b6200043a8582620003ad565b865550620004aa565b601f1984166200045386620001ef565b60005b828110156200047d5784890151825560018201915060208501945060208101905062000456565b868310156200049d578489015162000499601f8916826200038d565b8355505b6001600288020188555050505b505050505050565b613cf880620004c26000396000f3fe6080604052600436106101405760003560e01c806375682e79116100b6578063b93a89f71161006f578063b93a89f71461044b578063c87b56dd14610488578063e985e9c5146104c5578063f2fde38b14610502578063f41976081461052b578063fc452a531461055457610140565b806375682e791461033d5780638da5cb5b1461036657806395d89b4114610391578063a22cb465146103bc578063b1fd9cd4146103e5578063b88d4fde1461042257610140565b806323b872dd1161010857806323b872dd1461023e57806342842e0e1461026757806351ed8288146102905780636352211e146102ac57806370a08231146102e9578063715018a61461032657610140565b806301ffc9a71461014557806306fdde0314610182578063081812fc146101ad578063095ea7b3146101ea57806317d70f7c14610213575b600080fd5b34801561015157600080fd5b5061016c6004803603810190610167919061253d565b610596565b6040516101799190612585565b60405180910390f35b34801561018e57600080fd5b506101976105f7565b6040516101a49190612630565b60405180910390f35b3480156101b957600080fd5b506101d460048036038101906101cf9190612688565b610689565b6040516101e191906126f6565b60405180910390f35b3480156101f657600080fd5b50610211600480360381019061020c919061273d565b6106cf565b005b34801561021f57600080fd5b506102286107e6565b604051610235919061278c565b60405180910390f35b34801561024a57600080fd5b50610265600480360381019061026091906127a7565b6107ec565b005b34801561027357600080fd5b5061028e600480360381019061028991906127a7565b61084c565b005b6102aa60048036038101906102a59190612688565b61086c565b005b3480156102b857600080fd5b506102d360048036038101906102ce9190612688565b610a38565b6040516102e091906126f6565b60405180910390f35b3480156102f557600080fd5b50610310600480360381019061030b91906127fa565b610abe565b60405161031d919061278c565b60405180910390f35b34801561033257600080fd5b5061033b610b75565b005b34801561034957600080fd5b50610364600480360381019061035f919061295c565b610b89565b005b34801561037257600080fd5b5061037b610bfe565b60405161038891906126f6565b60405180910390f35b34801561039d57600080fd5b506103a6610c28565b6040516103b39190612630565b60405180910390f35b3480156103c857600080fd5b506103e360048036038101906103de91906129e4565b610cba565b005b3480156103f157600080fd5b5061040c60048036038101906104079190612688565b610cd0565b60405161041991906126f6565b60405180910390f35b34801561042e57600080fd5b5061044960048036038101906104449190612ac5565b610d03565b005b34801561045757600080fd5b50610472600480360381019061046d9190612688565b610d65565b60405161047f9190612c4e565b60405180910390f35b34801561049457600080fd5b506104af60048036038101906104aa9190612688565b610fff565b6040516104bc9190612630565b60405180910390f35b3480156104d157600080fd5b506104ec60048036038101906104e79190612c70565b611134565b6040516104f99190612585565b60405180910390f35b34801561050e57600080fd5b50610529600480360381019061052491906127fa565b6111c8565b005b34801561053757600080fd5b50610552600480360381019061054d9190612cb0565b61124b565b005b34801561056057600080fd5b5061057b60048036038101906105769190612688565b6113d7565b60405161058d96959493929190612d9b565b60405180910390f35b6000634906490660e01b7bffffffffffffffffffffffffffffffffffffffffffffffffffffffff1916827bffffffffffffffffffffffffffffffffffffffffffffffffffffffff191614806105f057506105ef82611640565b5b9050919050565b60606000805461060690612e47565b80601f016020809104026020016040519081016040528092919081815260200182805461063290612e47565b801561067f5780601f106106545761010080835404028352916020019161067f565b820191906000526020600020905b81548152906001019060200180831161066257829003601f168201915b5050505050905090565b600061069482611722565b6004600083815260200190815260200160002060009054906101000a900473ffffffffffffffffffffffffffffffffffffffff169050919050565b60006106da82610a38565b90508073ffffffffffffffffffffffffffffffffffffffff168373ffffffffffffffffffffffffffffffffffffffff160361074a576040517f08c379a000000000000000000000000000000000000000000000000000000000815260040161074190612eea565b60405180910390fd5b8073ffffffffffffffffffffffffffffffffffffffff1661076961176d565b73ffffffffffffffffffffffffffffffffffffffff16148061079857506107978161079261176d565b611134565b5b6107d7576040517f08c379a00000000000000000000000000000000000000000000000000000000081526004016107ce90612f7c565b60405180910390fd5b6107e18383611775565b505050565b60085481565b6107fd6107f761176d565b8261182e565b61083c576040517f08c379a00000000000000000000000000000000000000000000000000000000081526004016108339061300e565b60405180910390fd5b6108478383836118c3565b505050565b61086783838360405180602001604052806000815250610d03565b505050565b61087581611bbc565b6108b4576040517f08c379a00000000000000000000000000000000000000000000000000000000081526004016108ab9061307a565b60405180910390fd5b60006009600083815260200190815260200160002090508060050160009054906101000a900460ff161561091d576040517f08c379a0000000000000000000000000000000000000000000000000000000008152600401610914906130e6565b60405180910390fd5b61092682610a38565b73ffffffffffffffffffffffffffffffffffffffff163373ffffffffffffffffffffffffffffffffffffffff1603610993576040517f08c379a000000000000000000000000000000000000000000000000000000000815260040161098a90613152565b60405180910390fd5b80600201543410156109da576040517f08c379a00000000000000000000000000000000000000000000000000000000081526004016109d1906131be565b60405180910390fd5b60006109e583610a38565b90506109fb6109f384610a38565b336001611bfd565b610a1681338560405180602001604052806000815250610d03565b60018260050160006101000a81548160ff021916908315150217905550505050565b600080610a4483611d69565b9050600073ffffffffffffffffffffffffffffffffffffffff168173ffffffffffffffffffffffffffffffffffffffff1603610ab5576040517f08c379a0000000000000000000000000000000000000000000000000000000008152600401610aac9061322a565b60405180910390fd5b80915050919050565b60008073ffffffffffffffffffffffffffffffffffffffff168273ffffffffffffffffffffffffffffffffffffffff1603610b2e576040517f08c379a0000000000000000000000000000000000000000000000000000000008152600401610b25906132bc565b60405180910390fd5b600360008373ffffffffffffffffffffffffffffffffffffffff1673ffffffffffffffffffffffffffffffffffffffff168152602001908152602001600020549050919050565b610b7d611da6565b610b876000611e24565b565b610b91611da6565b610b9a82611bbc565b610bd9576040517f08c379a0000000000000000000000000000000000000000000000000000000008152600401610bd09061334e565b60405180910390fd5b80600b60008481526020019081526020016000209081610bf9919061351a565b505050565b6000600760009054906101000a900473ffffffffffffffffffffffffffffffffffffffff16905090565b606060018054610c3790612e47565b80601f0160208091040260200160405190810160405280929190818152602001828054610c6390612e47565b8015610cb05780601f10610c8557610100808354040283529160200191610cb0565b820191906000526020600020905b815481529060010190602001808311610c9357829003601f168201915b5050505050905090565b610ccc610cc561176d565b8383611bfd565b5050565b600a6020528060005260406000206000915054906101000a900473ffffffffffffffffffffffffffffffffffffffff1681565b610d14610d0e61176d565b8361182e565b610d53576040517f08c379a0000000000000000000000000000000000000000000000000000000008152600401610d4a9061300e565b60405180910390fd5b610d5f84848484611eea565b50505050565b610d6d612499565b600960008381526020019081526020016000206040518060c0016040529081600082018054610d9b90612e47565b80601f0160208091040260200160405190810160405280929190818152602001828054610dc790612e47565b8015610e145780601f10610de957610100808354040283529160200191610e14565b820191906000526020600020905b815481529060010190602001808311610df757829003601f168201915b50505050508152602001600182018054610e2d90612e47565b80601f0160208091040260200160405190810160405280929190818152602001828054610e5990612e47565b8015610ea65780601f10610e7b57610100808354040283529160200191610ea6565b820191906000526020600020905b815481529060010190602001808311610e8957829003601f168201915b5050505050815260200160028201548152602001600382018054610ec990612e47565b80601f0160208091040260200160405190810160405280929190818152602001828054610ef590612e47565b8015610f425780601f10610f1757610100808354040283529160200191610f42565b820191906000526020600020905b815481529060010190602001808311610f2557829003601f168201915b50505050508152602001600482018054610f5b90612e47565b80601f0160208091040260200160405190810160405280929190818152602001828054610f8790612e47565b8015610fd45780601f10610fa957610100808354040283529160200191610fd4565b820191906000526020600020905b815481529060010190602001808311610fb757829003601f168201915b505050505081526020016005820160009054906101000a900460ff1615151515815250509050919050565b606061100a82611bbc565b611049576040517f08c379a00000000000000000000000000000000000000000000000000000000081526004016110409061365e565b60405180910390fd5b6000611053611f46565b90506000600b6000858152602001908152602001600020805461107590612e47565b80601f01602080910402602001604051908101604052809291908181526020018280546110a190612e47565b80156110ee5780601f106110c3576101008083540402835291602001916110ee565b820191906000526020600020905b8154815290600101906020018083116110d157829003601f168201915b50505050509050600082510361110857809250505061112f565b818160405160200161111b9291906136ba565b604051602081830303815290604052925050505b919050565b6000600560008473ffffffffffffffffffffffffffffffffffffffff1673ffffffffffffffffffffffffffffffffffffffff16815260200190815260200160002060008373ffffffffffffffffffffffffffffffffffffffff1673ffffffffffffffffffffffffffffffffffffffff16815260200190815260200160002060009054906101000a900460ff16905092915050565b6111d0611da6565b600073ffffffffffffffffffffffffffffffffffffffff168173ffffffffffffffffffffffffffffffffffffffff160361123f576040517f08c379a000000000000000000000000000000000000000000000000000000000815260040161123690613750565b60405180910390fd5b61124881611e24565b50565b6112673360085460405180602001604052806000815250611f5d565b61127360085483611fb8565b33600a6000600854815260200190815260200160002060006101000a81548173ffffffffffffffffffffffffffffffffffffffff021916908373ffffffffffffffffffffffffffffffffffffffff16021790555080600b6000600854815260200190815260200160002090816112e9919061351a565b5060006040518060c00160405280878152602001858152602001868152602001848152602001838152602001600015158152509050806009600060085481526020019081526020016000206000820151816000019081611349919061351a565b50602082015181600101908161135f919061351a565b5060408201518160020155606082015181600301908161137f919061351a565b506080820151816004019081611395919061351a565b5060a08201518160050160006101000a81548160ff0219169083151502179055509050506008600081546113c89061379f565b91905081905550505050505050565b60096020528060005260406000206000915090508060000180546113fa90612e47565b80601f016020809104026020016040519081016040528092919081815260200182805461142690612e47565b80156114735780601f1061144857610100808354040283529160200191611473565b820191906000526020600020905b81548152906001019060200180831161145657829003601f168201915b50505050509080600101805461148890612e47565b80601f01602080910402602001604051908101604052809291908181526020018280546114b490612e47565b80156115015780601f106114d657610100808354040283529160200191611501565b820191906000526020600020905b8154815290600101906020018083116114e457829003601f168201915b50505050509080600201549080600301805461151c90612e47565b80601f016020809104026020016040519081016040528092919081815260200182805461154890612e47565b80156115955780601f1061156a57610100808354040283529160200191611595565b820191906000526020600020905b81548152906001019060200180831161157857829003601f168201915b5050505050908060040180546115aa90612e47565b80601f01602080910402602001604051908101604052809291908181526020018280546115d690612e47565b80156116235780601f106115f857610100808354040283529160200191611623565b820191906000526020600020905b81548152906001019060200180831161160657829003601f168201915b5050505050908060050160009054906101000a900460ff16905086565b60007f80ac58cd000000000000000000000000000000000000000000000000000000007bffffffffffffffffffffffffffffffffffffffffffffffffffffffff1916827bffffffffffffffffffffffffffffffffffffffffffffffffffffffff1916148061170b57507f5b5e139f000000000000000000000000000000000000000000000000000000007bffffffffffffffffffffffffffffffffffffffffffffffffffffffff1916827bffffffffffffffffffffffffffffffffffffffffffffffffffffffff1916145b8061171b575061171a8261205c565b5b9050919050565b61172b81611bbc565b61176a576040517f08c379a00000000000000000000000000000000000000000000000000000000081526004016117619061322a565b60405180910390fd5b50565b600033905090565b816004600083815260200190815260200160002060006101000a81548173ffffffffffffffffffffffffffffffffffffffff021916908373ffffffffffffffffffffffffffffffffffffffff160217905550808273ffffffffffffffffffffffffffffffffffffffff166117e883610a38565b73ffffffffffffffffffffffffffffffffffffffff167f8c5be1e5ebec7d5bd14f71427d1e84f3dd0314c0f7b2291e5b200ac8c7c3b92560405160405180910390a45050565b60008061183a83610a38565b90508073ffffffffffffffffffffffffffffffffffffffff168473ffffffffffffffffffffffffffffffffffffffff16148061187c575061187b8185611134565b5b806118ba57508373ffffffffffffffffffffffffffffffffffffffff166118a284610689565b73ffffffffffffffffffffffffffffffffffffffff16145b91505092915050565b8273ffffffffffffffffffffffffffffffffffffffff166118e382610a38565b73ffffffffffffffffffffffffffffffffffffffff1614611939576040517f08c379a000000000000000000000000000000000000000000000000000000000815260040161193090613859565b60405180910390fd5b600073ffffffffffffffffffffffffffffffffffffffff168273ffffffffffffffffffffffffffffffffffffffff16036119a8576040517f08c379a000000000000000000000000000000000000000000000000000000000815260040161199f906138eb565b60405180910390fd5b6119b583838360016120c6565b8273ffffffffffffffffffffffffffffffffffffffff166119d582610a38565b73ffffffffffffffffffffffffffffffffffffffff1614611a2b576040517f08c379a0000000000000000000000000000000000000000000000000000000008152600401611a2290613859565b60405180910390fd5b6004600082815260200190815260200160002060006101000a81549073ffffffffffffffffffffffffffffffffffffffff02191690556001600360008573ffffffffffffffffffffffffffffffffffffffff1673ffffffffffffffffffffffffffffffffffffffff168152602001908152602001600020600082825403925050819055506001600360008473ffffffffffffffffffffffffffffffffffffffff1673ffffffffffffffffffffffffffffffffffffffff16815260200190815260200160002060008282540192505081905550816002600083815260200190815260200160002060006101000a81548173ffffffffffffffffffffffffffffffffffffffff021916908373ffffffffffffffffffffffffffffffffffffffff160217905550808273ffffffffffffffffffffffffffffffffffffffff168473ffffffffffffffffffffffffffffffffffffffff167fddf252ad1be2c89b69c2b068fc378daa952ba7f163c4a11628f55a4df523b3ef60405160405180910390a4611bb783838360016120cc565b505050565b60008073ffffffffffffffffffffffffffffffffffffffff16611bde83611d69565b73ffffffffffffffffffffffffffffffffffffffff1614159050919050565b8173ffffffffffffffffffffffffffffffffffffffff168373ffffffffffffffffffffffffffffffffffffffff1603611c6b576040517f08c379a0000000000000000000000000000000000000000000000000000000008152600401611c6290613957565b60405180910390fd5b80600560008573ffffffffffffffffffffffffffffffffffffffff1673ffffffffffffffffffffffffffffffffffffffff16815260200190815260200160002060008473ffffffffffffffffffffffffffffffffffffffff1673ffffffffffffffffffffffffffffffffffffffff16815260200190815260200160002060006101000a81548160ff0219169083151502179055508173ffffffffffffffffffffffffffffffffffffffff168373ffffffffffffffffffffffffffffffffffffffff167f17307eab39ab6107e8899845ad3d59bd9653f200f220920489ca2b5937696c3183604051611d5c9190612585565b60405180910390a3505050565b60006002600083815260200190815260200160002060009054906101000a900473ffffffffffffffffffffffffffffffffffffffff169050919050565b611dae61176d565b73ffffffffffffffffffffffffffffffffffffffff16611dcc610bfe565b73ffffffffffffffffffffffffffffffffffffffff1614611e22576040517f08c379a0000000000000000000000000000000000000000000000000000000008152600401611e19906139c3565b60405180910390fd5b565b6000600760009054906101000a900473ffffffffffffffffffffffffffffffffffffffff16905081600760006101000a81548173ffffffffffffffffffffffffffffffffffffffff021916908373ffffffffffffffffffffffffffffffffffffffff1602179055508173ffffffffffffffffffffffffffffffffffffffff168173ffffffffffffffffffffffffffffffffffffffff167f8be0079c531659141344cd1fd0a4f28419497f9722a3daafe3b4186f6b6457e060405160405180910390a35050565b611ef58484846118c3565b611f01848484846120d2565b611f40576040517f08c379a0000000000000000000000000000000000000000000000000000000008152600401611f3790613a55565b60405180910390fd5b50505050565b606060405180602001604052806000815250905090565b611f678383612259565b611f7460008484846120d2565b611fb3576040517f08c379a0000000000000000000000000000000000000000000000000000000008152600401611faa90613a55565b60405180910390fd5b505050565b611fc182611bbc565b612000576040517f08c379a0000000000000000000000000000000000000000000000000000000008152600401611ff790613ae7565b60405180910390fd5b80600660008481526020019081526020016000209081612020919061351a565b507ff8e1a15aba9398e019f0b49df1a4fde98ee17ae345cb5f6b5e2c27f5033e8ce782604051612050919061278c565b60405180910390a15050565b60007f01ffc9a7000000000000000000000000000000000000000000000000000000007bffffffffffffffffffffffffffffffffffffffffffffffffffffffff1916827bffffffffffffffffffffffffffffffffffffffffffffffffffffffff1916149050919050565b50505050565b50505050565b60006120f38473ffffffffffffffffffffffffffffffffffffffff16612476565b1561224c578373ffffffffffffffffffffffffffffffffffffffff1663150b7a0261211c61176d565b8786866040518563ffffffff1660e01b815260040161213e9493929190613b5c565b6020604051808303816000875af192505050801561217a57506040513d601f19601f820116820180604052508101906121779190613bbd565b60015b6121fc573d80600081146121aa576040519150601f19603f3d011682016040523d82523d6000602084013e6121af565b606091505b5060008151036121f4576040517f08c379a00000000000000000000000000000000000000000000000000000000081526004016121eb90613a55565b60405180910390fd5b805181602001fd5b63150b7a0260e01b7bffffffffffffffffffffffffffffffffffffffffffffffffffffffff1916817bffffffffffffffffffffffffffffffffffffffffffffffffffffffff191614915050612251565b600190505b949350505050565b600073ffffffffffffffffffffffffffffffffffffffff168273ffffffffffffffffffffffffffffffffffffffff16036122c8576040517f08c379a00000000000000000000000000000000000000000000000000000000081526004016122bf90613c36565b60405180910390fd5b6122d181611bbc565b15612311576040517f08c379a000000000000000000000000000000000000000000000000000000000815260040161230890613ca2565b60405180910390fd5b61231f6000838360016120c6565b61232881611bbc565b15612368576040517f08c379a000000000000000000000000000000000000000000000000000000000815260040161235f90613ca2565b60405180910390fd5b6001600360008473ffffffffffffffffffffffffffffffffffffffff1673ffffffffffffffffffffffffffffffffffffffff16815260200190815260200160002060008282540192505081905550816002600083815260200190815260200160002060006101000a81548173ffffffffffffffffffffffffffffffffffffffff021916908373ffffffffffffffffffffffffffffffffffffffff160217905550808273ffffffffffffffffffffffffffffffffffffffff16600073ffffffffffffffffffffffffffffffffffffffff167fddf252ad1be2c89b69c2b068fc378daa952ba7f163c4a11628f55a4df523b3ef60405160405180910390a46124726000838360016120cc565b5050565b6000808273ffffffffffffffffffffffffffffffffffffffff163b119050919050565b6040518060c0016040528060608152602001606081526020016000815260200160608152602001606081526020016000151581525090565b6000604051905090565b600080fd5b600080fd5b60007fffffffff0000000000000000000000000000000000000000000000000000000082169050919050565b61251a816124e5565b811461252557600080fd5b50565b60008135905061253781612511565b92915050565b600060208284031215612553576125526124db565b5b600061256184828501612528565b91505092915050565b60008115159050919050565b61257f8161256a565b82525050565b600060208201905061259a6000830184612576565b92915050565b600081519050919050565b600082825260208201905092915050565b60005b838110156125da5780820151818401526020810190506125bf565b60008484015250505050565b6000601f19601f8301169050919050565b6000612602826125a0565b61260c81856125ab565b935061261c8185602086016125bc565b612625816125e6565b840191505092915050565b6000602082019050818103600083015261264a81846125f7565b905092915050565b6000819050919050565b61266581612652565b811461267057600080fd5b50565b6000813590506126828161265c565b92915050565b60006020828403121561269e5761269d6124db565b5b60006126ac84828501612673565b91505092915050565b600073ffffffffffffffffffffffffffffffffffffffff82169050919050565b60006126e0826126b5565b9050919050565b6126f0816126d5565b82525050565b600060208201905061270b60008301846126e7565b92915050565b61271a816126d5565b811461272557600080fd5b50565b60008135905061273781612711565b92915050565b60008060408385031215612754576127536124db565b5b600061276285828601612728565b925050602061277385828601612673565b9150509250929050565b61278681612652565b82525050565b60006020820190506127a1600083018461277d565b92915050565b6000806000606084860312156127c0576127bf6124db565b5b60006127ce86828701612728565b93505060206127df86828701612728565b92505060406127f086828701612673565b9150509250925092565b6000602082840312156128105761280f6124db565b5b600061281e84828501612728565b91505092915050565b600080fd5b600080fd5b7f4e487b7100000000000000000000000000000000000000000000000000000000600052604160045260246000fd5b612869826125e6565b810181811067ffffffffffffffff8211171561288857612887612831565b5b80604052505050565b600061289b6124d1565b90506128a78282612860565b919050565b600067ffffffffffffffff8211156128c7576128c6612831565b5b6128d0826125e6565b9050602081019050919050565b82818337600083830152505050565b60006128ff6128fa846128ac565b612891565b90508281526020810184848401111561291b5761291a61282c565b5b6129268482856128dd565b509392505050565b600082601f83011261294357612942612827565b5b81356129538482602086016128ec565b91505092915050565b60008060408385031215612973576129726124db565b5b600061298185828601612673565b925050602083013567ffffffffffffffff8111156129a2576129a16124e0565b5b6129ae8582860161292e565b9150509250929050565b6129c18161256a565b81146129cc57600080fd5b50565b6000813590506129de816129b8565b92915050565b600080604083850312156129fb576129fa6124db565b5b6000612a0985828601612728565b9250506020612a1a858286016129cf565b9150509250929050565b600067ffffffffffffffff821115612a3f57612a3e612831565b5b612a48826125e6565b9050602081019050919050565b6000612a68612a6384612a24565b612891565b905082815260208101848484011115612a8457612a8361282c565b5b612a8f8482856128dd565b509392505050565b600082601f830112612aac57612aab612827565b5b8135612abc848260208601612a55565b91505092915050565b60008060008060808587031215612adf57612ade6124db565b5b6000612aed87828801612728565b9450506020612afe87828801612728565b9350506040612b0f87828801612673565b925050606085013567ffffffffffffffff811115612b3057612b2f6124e0565b5b612b3c87828801612a97565b91505092959194509250565b600082825260208201905092915050565b6000612b64826125a0565b612b6e8185612b48565b9350612b7e8185602086016125bc565b612b87816125e6565b840191505092915050565b612b9b81612652565b82525050565b612baa8161256a565b82525050565b600060c0830160008301518482036000860152612bcd8282612b59565b91505060208301518482036020860152612be78282612b59565b9150506040830151612bfc6040860182612b92565b5060608301518482036060860152612c148282612b59565b91505060808301518482036080860152612c2e8282612b59565b91505060a0830151612c4360a0860182612ba1565b508091505092915050565b60006020820190508181036000830152612c688184612bb0565b905092915050565b60008060408385031215612c8757612c866124db565b5b6000612c9585828601612728565b9250506020612ca685828601612728565b9150509250929050565b600080600080600060a08688031215612ccc57612ccb6124db565b5b600086013567ffffffffffffffff811115612cea57612ce96124e0565b5b612cf68882890161292e565b9550506020612d0788828901612673565b945050604086013567ffffffffffffffff811115612d2857612d276124e0565b5b612d348882890161292e565b935050606086013567ffffffffffffffff811115612d5557612d546124e0565b5b612d618882890161292e565b925050608086013567ffffffffffffffff811115612d8257612d816124e0565b5b612d8e8882890161292e565b9150509295509295909350565b600060c0820190508181036000830152612db581896125f7565b90508181036020830152612dc981886125f7565b9050612dd8604083018761277d565b8181036060830152612dea81866125f7565b90508181036080830152612dfe81856125f7565b9050612e0d60a0830184612576565b979650505050505050565b7f4e487b7100000000000000000000000000000000000000000000000000000000600052602260045260246000fd5b60006002820490506001821680612e5f57607f821691505b602082108103612e7257612e71612e18565b5b50919050565b7f4552433732313a20617070726f76616c20746f2063757272656e74206f776e6560008201527f7200000000000000000000000000000000000000000000000000000000000000602082015250565b6000612ed46021836125ab565b9150612edf82612e78565b604082019050919050565b60006020820190508181036000830152612f0381612ec7565b9050919050565b7f4552433732313a20617070726f76652063616c6c6572206973206e6f7420746f60008201527f6b656e206f776e6572206f7220617070726f76656420666f7220616c6c000000602082015250565b6000612f66603d836125ab565b9150612f7182612f0a565b604082019050919050565b60006020820190508181036000830152612f9581612f59565b9050919050565b7f4552433732313a2063616c6c6572206973206e6f7420746f6b656e206f776e6560008201527f72206f7220617070726f76656400000000000000000000000000000000000000602082015250565b6000612ff8602d836125ab565b915061300382612f9c565b604082019050919050565b6000602082019050818103600083015261302781612feb565b9050919050565b7f4552433732313a20546f6b656e20646f6573206e6f7420657869737400000000600082015250565b6000613064601c836125ab565b915061306f8261302e565b602082019050919050565b6000602082019050818103600083015261309381613057565b9050919050565b7f4e465420697320616c726561647920736f6c6400000000000000000000000000600082015250565b60006130d06013836125ab565b91506130db8261309a565b602082019050919050565b600060208201905081810360008301526130ff816130c3565b9050919050565b7f4f776e65722063616e6e6f7420627579207468656972206f776e204e46540000600082015250565b600061313c601e836125ab565b915061314782613106565b602082019050919050565b6000602082019050818103600083015261316b8161312f565b9050919050565b7f496e73756666696369656e742066756e64730000000000000000000000000000600082015250565b60006131a86012836125ab565b91506131b382613172565b602082019050919050565b600060208201905081810360008301526131d78161319b565b9050919050565b7f4552433732313a20696e76616c696420746f6b656e2049440000000000000000600082015250565b60006132146018836125ab565b915061321f826131de565b602082019050919050565b6000602082019050818103600083015261324381613207565b9050919050565b7f4552433732313a2061646472657373207a65726f206973206e6f74206120766160008201527f6c6964206f776e65720000000000000000000000000000000000000000000000602082015250565b60006132a66029836125ab565b91506132b18261324a565b604082019050919050565b600060208201905081810360008301526132d581613299565b9050919050565b7f4552433732313a2055524920717565727920666f72206e6f6e6578697374656e60008201527f7420746f6b656e00000000000000000000000000000000000000000000000000602082015250565b60006133386027836125ab565b9150613343826132dc565b604082019050919050565b600060208201905081810360008301526133678161332b565b9050919050565b60008190508160005260206000209050919050565b60006020601f8301049050919050565b600082821b905092915050565b6000600883026133d07fffffffffffffffffffffffffffffffffffffffffffffffffffffffffffffffff82613393565b6133da8683613393565b95508019841693508086168417925050509392505050565b6000819050919050565b600061341761341261340d84612652565b6133f2565b612652565b9050919050565b6000819050919050565b613431836133fc565b61344561343d8261341e565b8484546133a0565b825550505050565b600090565b61345a61344d565b613465818484613428565b505050565b5b818110156134895761347e600082613452565b60018101905061346b565b5050565b601f8211156134ce5761349f8161336e565b6134a884613383565b810160208510156134b7578190505b6134cb6134c385613383565b83018261346a565b50505b505050565b600082821c905092915050565b60006134f1600019846008026134d3565b1980831691505092915050565b600061350a83836134e0565b9150826002028217905092915050565b613523826125a0565b67ffffffffffffffff81111561353c5761353b612831565b5b6135468254612e47565b61355182828561348d565b600060209050601f8311600181146135845760008415613572578287015190505b61357c85826134fe565b8655506135e4565b601f1984166135928661336e565b60005b828110156135ba57848901518255600182019150602085019450602081019050613595565b868310156135d757848901516135d3601f8916826134e0565b8355505b6001600288020188555050505b505050505050565b7f4552433732314d657461646174613a2055524920717565727920666f72206e6f60008201527f6e6578697374656e7420746f6b656e0000000000000000000000000000000000602082015250565b6000613648602f836125ab565b9150613653826135ec565b604082019050919050565b600060208201905081810360008301526136778161363b565b9050919050565b600081905092915050565b6000613694826125a0565b61369e818561367e565b93506136ae8185602086016125bc565b80840191505092915050565b60006136c68285613689565b91506136d28284613689565b91508190509392505050565b7f4f776e61626c653a206e6577206f776e657220697320746865207a65726f206160008201527f6464726573730000000000000000000000000000000000000000000000000000602082015250565b600061373a6026836125ab565b9150613745826136de565b604082019050919050565b600060208201905081810360008301526137698161372d565b9050919050565b7f4e487b7100000000000000000000000000000000000000000000000000000000600052601160045260246000fd5b60006137aa82612652565b91507fffffffffffffffffffffffffffffffffffffffffffffffffffffffffffffffff82036137dc576137db613770565b5b600182019050919050565b7f4552433732313a207472616e736665722066726f6d20696e636f72726563742060008201527f6f776e6572000000000000000000000000000000000000000000000000000000602082015250565b60006138436025836125ab565b915061384e826137e7565b604082019050919050565b6000602082019050818103600083015261387281613836565b9050919050565b7f4552433732313a207472616e7366657220746f20746865207a65726f2061646460008201527f7265737300000000000000000000000000000000000000000000000000000000602082015250565b60006138d56024836125ab565b91506138e082613879565b604082019050919050565b60006020820190508181036000830152613904816138c8565b9050919050565b7f4552433732313a20617070726f766520746f2063616c6c657200000000000000600082015250565b60006139416019836125ab565b915061394c8261390b565b602082019050919050565b6000602082019050818103600083015261397081613934565b9050919050565b7f4f776e61626c653a2063616c6c6572206973206e6f7420746865206f776e6572600082015250565b60006139ad6020836125ab565b91506139b882613977565b602082019050919050565b600060208201905081810360008301526139dc816139a0565b9050919050565b7f4552433732313a207472616e7366657220746f206e6f6e20455243373231526560008201527f63656976657220696d706c656d656e7465720000000000000000000000000000602082015250565b6000613a3f6032836125ab565b9150613a4a826139e3565b604082019050919050565b60006020820190508181036000830152613a6e81613a32565b9050919050565b7f45524337323155524953746f726167653a2055524920736574206f66206e6f6e60008201527f6578697374656e7420746f6b656e000000000000000000000000000000000000602082015250565b6000613ad1602e836125ab565b9150613adc82613a75565b604082019050919050565b60006020820190508181036000830152613b0081613ac4565b9050919050565b600081519050919050565b600082825260208201905092915050565b6000613b2e82613b07565b613b388185613b12565b9350613b488185602086016125bc565b613b51816125e6565b840191505092915050565b6000608082019050613b7160008301876126e7565b613b7e60208301866126e7565b613b8b604083018561277d565b8181036060830152613b9d8184613b23565b905095945050505050565b600081519050613bb781612511565b92915050565b600060208284031215613bd357613bd26124db565b5b6000613be184828501613ba8565b91505092915050565b7f4552433732313a206d696e7420746f20746865207a65726f2061646472657373600082015250565b6000613c206020836125ab565b9150613c2b82613bea565b602082019050919050565b60006020820190508181036000830152613c4f81613c13565b9050919050565b7f4552433732313a20746f6b656e20616c7265616479206d696e74656400000000600082015250565b6000613c8c601c836125ab565b9150613c9782613c56565b602082019050919050565b60006020820190508181036000830152613cbb81613c7f565b905091905056fea264697066735822122008fe4beec5a73f3080ad8a2f1b522b16567713c13793b082a952dbb7088ad32264736f6c63430008120033",
  "linkReferences": {},
  "deployedLinkReferences": {}
}